S00F00004D795343312E312E7372656329
S11300000C942A000C9447000C9447000C9447006D
S11300100C9447000C9447000C9447000C94470040
S11300200C9447000C9447000C9447000C94470030
S11300300C9447000C9493000C9447000C944700D4
S11300400C9447000C9447000C9447000C94470010
S11300500C94470011241FBECFE5D8E0DEBFCDBF0E
S113006010E0A0E6B0E0E0E8F2E002C005900D92F6
S1130070AE3DB107D9F720E0AEEDB0E001C01D926E
S1130080AA3FB207E1F70E9423010C943E010C94AD
S113009000008C9A8FB5806A8FBD8EB582618EBD4B
S11300A00895CF93DF93CDB7DEB7CE57D1090FB6FE
S11300B0F894DEBF0FBECDBF8EE7E0E6F0E0DE01D0
S11300C0119601900D928A95E1F7E091E200F0918A
S11300D0E300EE0FFF1F81E090E08C0F9D1FE80FFF
S11300E0F91F8081918197BD86BD8091E200909136
S11300F0E30001969093E3008093E200C258DF4F3F
S11301000FB6F894DEBF0FBECDBFDF91CF91089537
S11301101092E5001092E40017BC16BC1092E300A4
S11301201092E20008951F920F920FB60F921124BD
S11301302F933F934F935F936F937F938F939F93EB
S1130140AF93BF93EF93FF930E943A0190E0209105
S1130150E0003091E1002830310574F4F901EE0F2C
S1130160FF1FEA51FF4F918380832F5F3F4F3093EE
S1130170E1002093E00017C040E050E0E6EFF0E03B
S113018066EE70E032912291421753070CF4A901F4
S1130190E617F707B9F75093DF004093DE0010929B
S11301A0E1001092E000893C910539F481E090E08F
S11301B09093E5008093E4000BC0883C910511F412
S11301C00E9488008091E4009091E500892B51F110
S11301D08091E2009091E300CE9721F41092E30025
S11301E01092E2000E9451008091DE009091DF00A5
S11301F082389105ACF482E890E0EFE1FEE43197B7
S1130200F1F700C0000001972091DE003091DF007B
S11302102817390794F304C08CB1883C09F08CB1D9
S11302205F99FACFFF91EF91BF91AF919F918F9119
S11302307F916F915F914F913F912F910F900FBEDE
S11302400F901F90189578940E9449008CE090E0DC
S11302500E9431010E94380180E590E099BD88BD7B
S1130260FFCF90BD89B988E18AB98EE880BD089531
S1130270579A08955F9BFECF8CB10895F894FFCFF1
S11302804705ED05FC04ED054705A706ED05A706A2
S11302904705ED05FC04ED054705A706ED0501003E
S11302A04705ED05FC04ED054705A706ED05A70682
S11302B04705ED05FC04ED054705A706ED0501001E
S11302C04705FC04FA010100BC030100FA01010026
S11302D0BC030100FA010100BC030100FA01470557
S11302E0FC0438020100FA01010038020100FA019D
S11102F0010038020100FC044705ED05010081
S9030000FC
